00                                                   1118715383000140PREFEITURA MUNICIPAL DE BELO HGERENCIA PROC E PAGTAVENIDA AUGUSTO DE LIMA 30                        CENTRO              30190001BELO HORIZONTE      MG003132775371gppag@pbh.gov.br                                            20211011511        1               123246515000171                  *
10118715383000140000000000000000000000000000000000000PREF MUN BELO HORIZONTE                 AVENIDA AFONSO PENA 1212                          CENTRO              30130908BELO HORIZONTE      MG003132775371N8411600P200158200002402     000000000867318000000000000000000000000000000000000000000000                000000000000000000000000000000000000000000000    *
12118715383000140000000000000000000000000000000000000000000000000000000000000000000 000000000000000000000000000000                                000000000000000            000000000000000000000000000000000000000000000000000000000000000000000000000000000000000000000000000000000000000000000000000000000000000000000000000000000000000000000000000000000000      *
30118715383000140               100255259531604202120LUIZ CARLOS PRADO                                                     00001291368                    1509195202251000000000462366000000000000000  05000000000049859000000000000000000000000000000000000000000000                                                                                                  *
30118715383000140               100697869221803202020EFIGENIA DAS GRACAS PINTO                                             00001221157                    2502195503522000000000155223000000000000000  05000000000012320000000000000000000000000000000000000000000000                                                                                                  *
30118715383000140               100775727821304202020IARA BATISTA DOS SANTOS                                               00001226973                    1611195103522000000000136013000000000000000  05000000000010591000000000000000000000000000000000000000000000                                                                                                  *
30118715383000140               100887184730603202020JOSE MARCELO VAZ DE MELO                                              00001217656                    0301194402251000000000554553000000000000000  05000000000062765000000000000000000000000000000000000000000000                                                                                                  *
30118715383000140               101054879772804202120WALNEY DA SILVA MONTEIRO                                              00001294235                    1510195903522000000000170333000000000000000  05000000000013679000000000000000000000000000000000000000000000                                                                                                  *
30118715383000140               101077453370610202020WALMISSON ANTONIO DE ALMEIDA                                          00001254543                    2510195902232000000000508264000000000000000  05000000000056284000000000000000000000000000000000000000000000                                                                                                  *
30118715383000140               101125678752907202120MARIA REGINA ARRUDA NASSIF                                            00001313019                    1409194703522000000000203870000000000000000  05000000000016698000000000000000000000000000000000000000000000                                                                                                  *
30118715383000140               101161629260106202120MARIA MADALENA RESENDE ABREU                                          00001299830                    1303195303522000000000175702000000000000000  05000000000014163000000000000000000000000000000000000000000000                                                                                                  *
30118715383000140               102286928461307202120TERESA PEREIRA SILVA                                                  00001311059                    1605195203522000000000164767000000000000000  05000000000013179000000000000000000000000000000000000000000000                                                                                                  *
30118715383000140               102290111332201202020NORMA RIGHI CAPANEMA DE ALMEIDA                                       00001212972                    1811195102232000000000508264000000000000000  05000000000056284000000000000000000000000000000000000000000000                                                                                                  *
30118715383000140               102351414851706202120LUIZ GONZAGA DE CARVALHO                                              00001302343                    1702194102251000000000503338000000000000000  05000000000055595000000000000000000000000000000000000000000000                                                                                                  *
30118715383000140               102479050781111201920LENICE OLIVEIRA DE SOUZA                                              00001201849                    0512194303522000000000176991000000000000000  05000000000014279000000000000000000000000000000000000000000000                                                                                                  *
30118715383000140               102488974512210202020ELIANE FATIMA PINTO FERNANDES                                         00001256651                    0902195703522000000000173506000000000000000  05000000000013965000000000000000000000000000000000000000000000                                                                                                  *
30118715383000140               102546654511608202120SUELI APARECIDA RODRIGUES                                             00001315941                    1711195504110000000000198951000000000000000  05000000000016255000000000000000000000000000000000000000000000                                                                                                  *
30118715383000140               102629784471101202020NILSON ROSA GUIMARAES                                                 00001211020                    2511195903522000000000152952000000000000000  05000000000012115000000000000000000000000000000000000000000000                                                                                                  *
30118715383000140               102634009370506202020MARIA LEMOS SAMPAIO                                                   00001236901                    1608195203522000000000156264000000000000000  05000000000012413000000000000000000000000000000000000000000000                                                                                                  *
30118715383000140               103794613040605202120IVONE MARIA VIEIRA DE ALMEIDA                                         00001296092                    0208195003522000000000239957000000000000000  05000000000020534000000000000000000000000000000000000000000000                                                                                                  *
30118715383000140               104259869740806202120JAN MARIAN MUCK                                                       00001300227                    0912194502251000000001100913000000000000000  05000000000075197000000000000000000000000000000000000000000000                                                                                                  *
30118715383000140               105163012812409202120MARLENE DAS GRACAS DUTRA                                              00001323294                    0702195603522000000000131120000000000000000  05000000000010150000000000000000000000000000000000000000000000                                                                                                  *
30118715383000140               105576071800709202120JOEL RAMOS DA SILVA                                                   00001320392                    2501195403522000000000192623000000000000000  05000000000015686000000000000000000000000000000000000000000000                                                                                                  *
30118715383000140               106050510270808202120MARCELO TORRES TEIXEIRA LEITE                                         00001314414                    2811195502251000000000448457000000000000000  05000000000047911000000000448457000000000000000000000000000000                                                                                                  *
32118715383000140               106050510270808202120MARCELO TORRES TEIXEIRA LEITE                                         P306102021                                                                                                                                                                                                                                  *
32118715383000140               106050510270808202120MARCELO TORRES TEIXEIRA LEITE                                         Z521102021                                                                                                                                                                                                                                  *
30118715383000140               106237026030607202020VANIA TEREZINHA FERNANDES RODRIGUES SERNIZON                          00001240496                    1906195502232000000000254131000000000000000  05000000000022234000000000000000000000000000000000000000000000                                                                                                  *
30118715383000140               106262890222603202120MARLUCIA DE FATIMA ALVES MARTINS                                      00001285171                    1108195303522000000000110000000000000000000  05000000000008250000000000000000000000000000000000000000000000                                                                                                  *
30118715383000140               106301748972506202120VALDA JUSTINIANO DE CARVALHO                                          00001307051                    2408196004222000000000323176000000000000000  05000000000030520000000000000000000000000000000000000000000000                                                                                                  *
32118715383000140               106301748972506202120VALDA JUSTINIANO DE CARVALHO                                          I130092021N                                                                                                                                                                                                                                 *
30118715383000140               106301780781403202120MARCO ANTONIO FELIX MATEUS                                            00001280978                    1409195702251000000000841603000000000000000  05000000000075197000000000000000000000000000000000000000000000                                                                                                  *
30118715383000140               106570099192011201920ROSA MARIA DE ALMEIDA ARAUJO                                          00001203256                    1412195203522000000000208361000000000000000  05000000000017102000000000000000000000000000000000000000000000                                                                                                  *
30118715383000140               106725273642506202120MARIA DE FATIMA ACACIA VIEIRA                                         00001307655                    0705195604201000000000320086000000000000000  05000000000030149000000000000000000000000000000000000000000000                                                                                                  *
32118715383000140               106725273642506202120MARIA DE FATIMA ACACIA VIEIRA                                         I130092021N                                                                                                                                                                                                                                 *
30118715383000140               106753025253105202120NEUZA MARIA FERREIRA                                                  00001299482                    2812195603522000000000176991000000000000000  05000000000014279000000000000000000000000000000000000000000000                                                                                                  *
30118715383000140               106794250870710201920FATIMA EFIGENIA GONCALVES                                             00001192335                    1712195403522000000000027131000000000000000  05000000000002034000000000000000000000000000001000000000000000                                                                                                  *
32118715383000140               106794250870710201920FATIMA EFIGENIA GONCALVES                                             I106102021N                                                                                                                                                                                                                                 *
30118715383000140               106839093951410202120MARIA DAS DORES DE SOUZA MIRANDA                                      00001326269                    2603195903522000000000135976000000000000000  05000000000010587000000000000000000000000000000000000000000000                                                                                                  *
30118715383000140               106840407320807202120MARIO DA CONCEICAO DIAS DA CUNHA                                      00001310265                    0506195803522000000000172894000000000000000  05000000000013910000000000000000000000000000000000000000000000                                                                                                  *
30118715383000140               106910055722209202120JOVELINA EMILIA RANGEL SALES ROSA                                     00001322778                    0312196003522000000000176991000000000000000  05000000000014279000000000000000000000000000000000000000000000                                                                                                  *
30118715383000140               107074309490311202020MARINA CLARICE DOLARIVA DE SOUSA                                      00001257909                    0202195903522000000000213544000000000000000  05000000000017568000000000000000000000000000000000000000000000                                                                                                  *
30118715383000140               107144096822406202120ZILDA VIANA DE SOUSA                                                  00001303382                    1710195503522000000000190827000000000000000  05000000000015524000000000000000000000000000000000000000000000                                                                                                  *
30118715383000140               107145826431410202020FRENEIA DA SILVA ARRUDA                                               00001255183                    1205195703522000000000131120000000000000000  05000000000010150000000000000000000000000000000000000000000000                                                                                                  *
30118715383000140               107255167602904201920MARILDA EUNICE FERREIRA                                               00000586714                    2802195703522000000000186333000000000000000  05000000000015119000000000000000000000000000001000000000000000                                                                                                  *
32118715383000140               107255167602904201920MARILDA EUNICE FERREIRA                                               I328102021N                                                                                                                                                                                                                                 *
30118715383000140               107347481052807202120MARILENE BARBOSA DE SOUZA                                             00001312985                    1912195903522000000000131120000000000000000  05000000000010150000000000000000000000000000000000000000000000                                                                                                  *
30118715383000140               107419653022008202120ROSEMARY FERNANDES                                                    00001317367                    3101195803522000000000265695000000000000000  05000000000021119000000000000000000000000000000000000000000000                                                                                                  *
30118715383000140               107419666352901202020FLAVIA IZABEL MARTINS REIS                                            00001213642                    0707196103522000000000195336000000000000000  05000000000015930000000000000000000000000000000000000000000000                                                                                                  *
30118715383000140               107517459173003202020SONIA CRITI DE OLIVEIRA                                               00001222870                    3011196103522000000000173506000000000000000  05000000000013965000000000000000000000000000000000000000000000                                                                                                  *
30118715383000140               107588309362206202120GERALDO MAJELA DE ASSIS PEREIRA                                       00001303153                    2812196002251000000000712541000000000000000  05000000000075197000000000000000000000000000000000000000000000                                                                                                  *
30118715383000140               107624004952506202120MARIO SERGIO DOS SANTOS                                               00001307850                    0212195804222000000000281935000000000000000  05000000000025571000000000000000000000000000000000000000000000                                                                                                  *
32118715383000140               107624004952506202120MARIO SERGIO DOS SANTOS                                               I130092021N                                                                                                                                                                                                                                 *
30118715383000140               107624663992708202120INES RUGGIO DE FIGUEIREDO                                             00001318436                    2312195703522000000000358439000000000000000  05000000000030171000000000000000000000000000000000000000000000                                                                                                  *
30118715383000140               107671537390505202120CLEUDIA MARIA DE JESUS                                                00001295851                    0905196302235000000000198748000000000000000  05000000000016237000000000000000000000000000000000000000000000                                                                                                  *
30118715383000140               107675260122506202120EDUARDO CORREA                                                        00001307108                    2407196204201000000000375050000000000000000  05000000000037634000000000000000000000000000000000000000000000                                                                                                  *
32118715383000140               107675260122506202120EDUARDO CORREA                                                        I130092021N                                                                                                                                                                                                                                 *
30118715383000140               107675825591101202120OLGA PEREIRA DA SILVA                                                 00001267408                    2809196003522000000000135657000000000000000  05000000000010559000000000000000000000000000000000000000000000                                                                                                  *
30118715383000140               107734876350105201920EUSTAQUIO ALVES FERREIRA                                              00000587003                    2002196103522000000000256813000000000000000  05000000000022556000000000000000000000000000000000000000000000                                                                                                  *
30118715383000140               107769752742005202120ELIANA MARIA DE OLIVEIRA SA                                           00001297889                    2602195802232000000000295452000000000000000  05000000000027193000000000000000000000000000000000000000000000                                                                                                  *
30118715383000140               107859881892805202120VALERIA ANACLETO DE LIMA MOREIRA                                      00001299431                    0610196003522000000000245402000000000000000  05000000000021187000000000000000000000000000000000000000000000                                                                                                  *
30118715383000140               107896323971108202120ANGELA SANTOS VITAL COELHO                                            00001315615                    2604195403522000000000135657000000000000000  05000000000010559000000000000000000000000000000000000000000000                                                                                                  *
30118715383000140               107897131172207202020SHIRLEY DA CONCEICAO RAMOS                                            00001243118                    2112196003522000000000201559000000000000000  05000000000023823000000000000000000000000000000000000000000000                                                                                                  *
30118715383000140               107897131172201202120SHIRLEY DA CONCEICAO RAMOS                                            00001269524                    2112196003522000000000192623000000000000000  05000000000016490000000000000000000000000000000000000000000000                                                                                                  *
30118715383000140               107900575542503202020MARTILDES SANTANA SANTOS DE OLIVEIRA                                  00001222269                    2906195803522000000000193900000000000000000  05000000000015801000000000000000000000000000000000000000000000                                                                                                  *
30118715383000140               107996504953105202120MARIA CLERIA PEREIRA DOS SANTOS                                       00001299652                    1803196203522000000000135657000000000000000  05000000000010559000000000000000000000000000000000000000000000                                                                                                  *
30118715383000140               107997257541309202120ANGELA APARECIDA DE SALES                                             00001321151                    2009195903522000000000172894000000000000000  05000000000013910000000000000000000000000000000000000000000000                                                                                                  *
30118715383000140               108037381852204201920IZAMAR DOMINGOS DA SILVA                                              00000586624                    0105196303522000000000147753000000000000000  05000000000011647000000000000000000000000000001000000000000000                                                                                                  *
32118715383000140               108037381852204201920IZAMAR DOMINGOS DA SILVA                                              I321102021N                                                                                                                                                                                                                                 *
30118715383000140               108037842332605202120LUZIA MATIAS DE SOUZA SILVA                                           00001299156                    2302196203522000000000176991000000000000000  05000000000014279000000000000000000000000000000000000000000000                                                                                                  *
30118715383000140               108038329390802202120MARIA DA LUZ BATISTA FORNERIS                                         00001276440                    1403196003522000000000160158000000000000000  05000000000014810000000000000000000000000000000000000000000000                                                                                                  *
30118715383000140               108038329392408202120MARIA DA LUZ BATISTA FORNERIS                                         00001318223                    1403196003522000000000182892000000000000000  05000000000018344000000000000000000000000000000000000000000000                                                                                                  *
30118715383000140               108059144010702202020CLEIDE DE FATIMA SILVA PEREIRA                                        00001214495                    1102196203522000000000194198000000000000000  05000000000015827000000000000000000000000000000000000000000000                                                                                                  *
32118715383000140               108059144010702202020CLEIDE DE FATIMA SILVA PEREIRA                                        P121092021                                                                                                                                                                                                                                  *
30118715383000140               108059750010407202120ROGERIO ALVES CAMPOS                                                  00001304664                    2408196003522000000000141463000000000000000  05000000000011081000000000000000000000000000000000000000000000                                                                                                  *
30118715383000140               108092965910601202020SILVANA TEDESCHI PEREZ BAPTISTA                                       00001209670                    0906196003522000000000211552000000000000000  05000000000017389000000000211552000000000000000000000000000000                                                                                                  *
32118715383000140               108092965910601202020SILVANA TEDESCHI PEREZ BAPTISTA                                       P319102021                                                                                                                                                                                                                                  *
32118715383000140               108092965910601202020SILVANA TEDESCHI PEREZ BAPTISTA                                       Z522102021                                                                                                                                                                                                                                  *
30118715383000140               108095855420104202120SANDRA GERALDA DOS ANJOS                                              00001286925                    1609196003522000000000235979000000000000000  05000000000020056000000000000000000000000000000000000000000000                                                                                                  *
30118715383000140               108096111012410201920MARIA DA CONSOLACAO FERREIRA                                          00001196519                    2302195203522000000000118035000000000000000  05000000000008973000000000000000000000000000001000000000000000                                                                                                  *
32118715383000140               108096111012410201920MARIA DA CONSOLACAO FERREIRA                                          I323102021N                                                                                                                                                                                                                                 *
30118715383000140               108096593171710201920LUCIANO DA SILVA GOMES                                                00001195490                    2103196603522000000000122951000000000000000  05000000000009415000000000000000000000000000001000000000000000                                                                                                  *
32118715383000140               108096593171710201920LUCIANO DA SILVA GOMES                                                I316102021N                                                                                                                                                                                                                                 *
30118715383000140               108096984792009202120MARIZA GONCALVES SANTOS                                               00001322115                    1002195903522000000000172894000000000000000  05000000000013910000000000000000000000000000000000000000000000                                                                                                  *
30118715383000140               108167702280711201920MARISA DO PERPETUO SOCORRO SILVA                                      00001194311                    1009196202232000000000672152000000000000000  05000000000075197000000000000000000000000000000000000000000000                                                                                                  *
30118715383000140               108169932271904202120WANDA DA CONCEICAO GOMES FERNANDES                                    00001291970                    0508195703522000000000131120000000000000000  05000000000010150000000000000000000000000000000000000000000000                                                                                                  *
30118715383000140               108170963502703202020ELIANE DA CRUZ SANTOS                                                 00001222625                    2107196103522000000000189550000000000000000  05000000000015409000000000000000000000000000000000000000000000                                                                                                  *
30118715383000140               108194009521305202020ESMERLITE DA SILVA ANTONIO RAFAEL                                     00001232884                    2001196303522000000000172894000000000000000  05000000000013910000000000000000000000000000000000000000000000                                                                                                  *
30118715383000140               108194033581010202120ANA MARIA RIBEIRO LIMA                                                00001325742                    2607196303522000000000099024000000000000000  05000000000007426000000000000000000000000000000000000000000000                                                                                                  *
30118715383000140               108196256871401202020TANIA APARECIDA BRAGA                                                 00001211291                    0206196103522000000000235979000000000000000  05000000000020056000000000000000000000000000000000000000000000                                                                                                  *
30118715383000140               108282949810307202020ZELI GONCALVES DA SILVA                                               00001240380                    1602196403522000000000176991000000000000000  05000000000014279000000000176991000000000000000000000000000000                                                                                                  *
32118715383000140               108282949810307202020ZELI GONCALVES DA SILVA                                               P319102021                                                                                                                                                                                                                                  *
32118715383000140               108282949810307202020ZELI GONCALVES DA SILVA                                               Z526102021                                                                                                                                                                                                                                  *
30118715383000140               108284107360908202120SELMA APARECIDA FERREIRA DE MATTOS                                    00001314015                    0507196003522000000000131120000000000000000  05000000000010150000000000000000000000000000000000000000000000                                                                                                  *
30118715383000140               108307984360302202020NELYE APARECIDA MACEDO                                                00001214029                    1210195503522000000000156264000000000000000  05000000000012413000000000000000000000000000000000000000000000                                                                                                  *
30118715383000140               108396260932705202020MARCO ANTONIO BASBAUM                                                 00001235301                    0701195502251000000000462366000000000000000  05000000000049859000000000000000000000000000000000000000000000                                                                                                  *
30118715383000140               108433266941504201920CARMEN FURTADO                                                        00000586551                    2303196103522000000000064382000000000000000  05000000000011732000000000000000000000000000001000000000000000                                                                                                  *
32118715383000140               108433266941504201920CARMEN FURTADO                                                        I314102021N                                                                                                                                                                                                                                 *
30118715383000140               108433266941709202020CARMEN FURTADO                                                        00001252036                    2303196103522000000000137962000000000000000  05000000000004828000000000000000000000000000000000000000000000                                                                                                  *
30118715383000140               108433338012901202020ANA BEATRIZ SANTOS FURTADO                                            00001213634                    0510196303522000000000131120000000000000000  05000000000010150000000000000000000000000000000000000000000000                                                                                                  *
30118715383000140               108580268023107202120MARIA JOSE DE QUEIROZ BISPO                                           00001312845                    0109195903522000000000192623000000000000000  05000000000015686000000000192623000000000000000000000000000000                                                                                                  *
32118715383000140               108580268023107202120MARIA JOSE DE QUEIROZ BISPO                                           P315102021                                                                                                                                                                                                                                  *
32118715383000140               108580268023107202120MARIA JOSE DE QUEIROZ BISPO                                           Z520102021                                                                                                                                                                                                                                  *
30118715383000140               108581066010212202020SUELI PEREIRA DA CUNHA                                                00001262872                    1701196303522000000000202316000000000000000  05000000000016558000000000202316000000000000000000000000000000                                                                                                  *
32118715383000140               108581066010212202020SUELI PEREIRA DA CUNHA                                                P319102021                                                                                                                                                                                                                                  *
32118715383000140               108581066010212202020SUELI PEREIRA DA CUNHA                                                Z523102021                                                                                                                                                                                                                                  *
30118715383000140               108581066012705202120SUELI PEREIRA DA CUNHA                                                00001298869                    1701196303522000000000172894000000000000000  05000000000021099000000000172894000000000000000000000000000000                                                                                                  *
32118715383000140               108581066012705202120SUELI PEREIRA DA CUNHA                                                P319102021                                                                                                                                                                                                                                  *
32118715383000140               108581066012705202120SUELI PEREIRA DA CUNHA                                                Z523102021                                                                                                                                                                                                                                  *
30118715383000140               108628426352602202120FANNY BERNARDES FERREIRA                                              00001278752                    2906196403522000000000190783000000000000000  05000000000015520000000000000000000000000000000000000000000000                                                                                                  *
30118715383000140               108639871650807202020MARIA APARECIDA DE JESUS                                              00001240720                    1810196203522000000000170333000000000000000  05000000000013679000000000170333000000000000000000000000000000                                                                                                  *
32118715383000140               108639871650807202020MARIA APARECIDA DE JESUS                                              P305102021                                                                                                                                                                                                                                  *
32118715383000140               108639871650807202020MARIA APARECIDA DE JESUS                                              Z515102021                                                                                                                                                                                                                                  *
30118715383000140               108662634271912201920JANE CLAIR MELO ADAMI                                                 00001208452                    0109196303522000000000194198000000000000000  05000000000015827000000000000000000000000000000000000000000000                                                                                                  *
30118715383000140               108663535071808202120SANDRA DE SOUZA MELO                                                  00001316611                    1702196003522000000000176991000000000000000  05000000000014279000000000000000000000000000000000000000000000                                                                                                  *
30118715383000140               108663563362809202120ELAINE DE PAULA MELO                                                  00001323928                    3012196303522000000000135657000000000000000  05000000000010559000000000000000000000000000000000000000000000                                                                                                  *
30118715383000140               108734404602701202020SOLANGE ALVES ROCHA                                                   00001213367                    0503196303522000000000170333000000000000000  05000000000013679000000000000000000000000000000000000000000000                                                                                                  *
30118715383000140               108739827781410201920CARLOS ROBERTO DE LIMA                                                00001193510                    1603196103522000000000088344000000000000000  05000000000006625000000000000000000000000000001000000000000000                                                                                                  *
32118715383000140               108739827781410201920CARLOS ROBERTO DE LIMA                                                I313102021N                                                                                                                                                                                                                                 *
30118715383000140               108756855171512202020MARIA GERALDA DOMINGOS                                                00001264409                    1006195903522000000000170333000000000000000  05000000000013679000000000000000000000000000000000000000000000                                                                                                  *
30118715383000140               108757322642712201920SILVANA MARIA DA SILVA MATTOS                                         00001208827                    2803196003522000000000164767000000000000000  05000000000013179000000000000000000000000000000000000000000000                                                                                                  *
30118715383000140               108758675340410202120VICENTE DE PAULO ROMUALDO                                             00001324320                    2808196003522000000000155605000000000000000  05000000000012354000000000000000000000000000000000000000000000                                                                                                  *
30118715383000140               108792930280411202020DECIO LUIZ GONCALVES DE MOURA                                         00001258336                    2804196205151000000000140013000000000000000  05000000000010951000000000000000000000000000000000000000000000                                                                                                  *
30118715383000140               108803664242506202120WALQUIRIA HELENA FERNANDES SILVA                                      00001305954                    1103195804222000000000281935000000000000000  05000000000025571000000000000000000000000000000000000000000000                                                                                                  *
32118715383000140               108803664242506202120WALQUIRIA HELENA FERNANDES SILVA                                      I130092021N                                                                                                                                                                                                                                 *
30118715383000140               108854005072004202120WELLINGTON DE SOUZA BITTENCOURT                                       00001292372                    2805195903522000000000136013000000000000000  05000000000010591000000000000000000000000000000000000000000000                                                                                                  *
30118715383000140               108854126452005202120ADELIA PEREIRA ARGUELES LIMA                                          00001298079                    1204196003522000000000142671000000000000000  05000000000011190000000000000000000000000000000000000000000000                                                                                                  *
30118715383000140               108854945602105202120APARECIDA DO NASCIMENTO SILVA                                         00001298273                    2407196403522000000000227119000000000000000  05000000000018993000000000000000000000000000000000000000000000                                                                                                  *
30118715383000140               108857028992708202120DAMARIS DENISE DO CARMO                                               00001318452                    1008196203522000000000230534000000000000000  05000000000019403000000000000000000000000000000000000000000000                                                                                                  *
30118715383000140               108858061711509202020APARECIDA GERALDA JESUS DO CARMO                                      00001251900                    0303196103522000000000176991000000000000000  05000000000014279000000000000000000000000000000000000000000000                                                                                                  *
30118715383000140               108889109802109202120EDUARDO NEGROMONTE                                                    00001322344                    0606196403522000000000172894000000000000000  05000000000013910000000000000000000000000000000000000000000000                                                                                                  *
30118715383000140               108889119442903202120MONICA PERES CARVALHO MACHADO                                         00001285775                    1902196003522000000000110000000000000000000  05000000000008250000000000000000000000000000000000000000000000                                                                                                  *
30118715383000140               108917788850305201920VERA LUCIA VIANA MARTINS                                              00000586810                    2106196103522000000000213544000000000000000  05000000000017568000000000000000000000000000000000000000000000                                                                                                  *
30118715383000140               108936778062004202020TEREZINHA MARTINS COSTA                                               00001227821                    2210196103522000000000131120000000000000000  05000000000010150000000000000000000000000000000000000000000000                                                                                                  *
30118715383000140               108939697850610202120YZELDA LEAL                                                           00001325319                    1512196103522000000000199964000000000000000  05000000000016346000000000000000000000000000000000000000000000                                                                                                  *
30118715383000140               108977662931811201920ROSANGELA APARECIDA VIEIRA                                            00001202624                    0608196403522000000000131120000000000000000  05000000000010150000000000000000000000000000000000000000000000                                                                                                  *
30118715383000140               108978099872109202120MANOEL FRANCISCO LUCIO                                                00001322433                    0403196503522000000000240980000000000000000  05000000000018501000000000000000000000000000000000000000000000                                                                                                  *
30118715383000140               108980227512910202020SONIA IMACULADA DUTRA                                                 00001257607                    1012196203522000000000131120000000000000000  05000000000010150000000000000000000000000000000000000000000000                                                                                                  *
30118715383000140               108980241930109202120JOAO BATISTA PEREIRA                                                  00001319297                    2909196303522000000000289132000000000000000  05000000000022877000000000000000000000000000000000000000000000                                                                                                  *
30118715383000140               109150574571002202020ANA AUGUSTA DE AMORIM PINTO                                           00001214525                    0702195903522000000000135657000000000000000  05000000000010559000000000000000000000000000000000000000000000                                                                                                  *
30118715383000140               109445459871006202020ANTONIO CELIO LEMOS PIMENTA                                           00001237401                    1908194902251000000000482852000000000000000  05000000000052727000000000000000000000000000000000000000000000                                                                                                  *
30118715383000140               109449881961103202120MARIA CECILIA PROENCA TAVARES DE SOUSA                                00001281133                    2411194202251000000000482852000000000000000  05000000000052727000000000482852000000000000000000000000000000                                                                                                  *
32118715383000140               109449881961103202120MARIA CECILIA PROENCA TAVARES DE SOUSA                                P305102021                                                                                                                                                                                                                                  *
32118715383000140               109449881961103202120MARIA CECILIA PROENCA TAVARES DE SOUSA                                P312102021                                                                                                                                                                                                                                  *
32118715383000140               109449881961103202120MARIA CECILIA PROENCA TAVARES DE SOUSA                                P324102021                                                                                                                                                                                                                                  *
32118715383000140               109449881961103202120MARIA CECILIA PROENCA TAVARES DE SOUSA                                Z508102021                                                                                                                                                                                                                                  *
32118715383000140               109449881961103202120MARIA CECILIA PROENCA TAVARES DE SOUSA                                Z522102021                                                                                                                                                                                                                                  *
32118715383000140               109449881961103202120MARIA CECILIA PROENCA TAVARES DE SOUSA                                Z529102021                                                                                                                                                                                                                                  *
30118715383000140               111862110102807202120ARLINDO GONCALVES FERREIRA                                            00001312969                    2706196002232000000000261018000000000000000    000000000000000000000000000000000000000000000000000000000000                                                                                                  *
30118715383000140               111862263603011202020VILSON JOSE DA FONSECA                                                00001262554                    2101196803522000000000172894000000000000000  05000000000013910000000000000000000000000000000000000000000000                                                                                                  *
30118715383000140               111869369962210202020LUCAS CESAR CARVALHO DE LACERDA                                       00001256635                    2303196002251000000000299996000000000000000  05000000000027738000000000000000000000000000001000000000000000                                                                                                  *
32118715383000140               111869369962210202020LUCAS CESAR CARVALHO DE LACERDA                                       I321102021N                                                                                                                                                                                                                                 *
30118715383000140               111874210512204202020MARCO TULIO SILVA GUIMARAES                                           00001229387                    0806196002251000000000386999000000000000000  05000000000000000000000000000000000000000000000000000000000000                                                                                                  *
30118715383000140               111874210512505202020MARCO TULIO SILVA GUIMARAES                                           00001234852                    0806196002251000000000816855000000000000000  05000000000075197000000000000000000000000000000000000000000000                                                                                                  *
30118715383000140               112435508183004202120JANETE SILVA DE ANDRADE                                               00001294138                    2804196202251000000000554553000000000000000  05000000000062765000000000000000000000000000000000000000000000                                                                                                  *
30118715383000140               112741544183009202120MARIA DO PERPETUO SOCORRO                                             00001324231                    1306196503522000000000230534000000000000000  05000000000019403000000000000000000000000000000000000000000000                                                                                                  *
30118715383000140               113078389652607202120SERGIO CAPORALI DE OLIVEIRA                                           00001312446                    1307196502251000000000465440000000000000000  05000000000050289000000000000000000000000000000000000000000000                                                                                                  *
30118715383000140               113916185771111202020SILVIA LUCIA ALVES                                                    00001259057                    0702196402251000000000465440000000000000000  05000000000050289000000000000000000000000000000000000000000000                                                                                                  *
30118715383000140               114079156191311202020PAULA CRISTINA PIMENTA                                                00001259502                    0604197502235000000000494806000000000000000  05000000000054400000000000000000000000000000000000000000000000                                                                                                  *
30118715383000140               114120948300908202120SELMA MARIA PEREIRA                                                   00001314767                    2204197903522000000000262875000000000000000  05000000000020865000000000000000000000000000000000000000000000                                                                                                  *
30118715383000140               114168673700412202020ALAENIS DE JESUS SOUZA                                                00001262970                    2901197603522000000000192623000000000000000  05000000000015686000000000000000000000000000000000000000000000                                                                                                  *
30118715383000140               114229903241407202120DILERMANDO FAZITO DE REZENDE                                          00001311199                    0208194402251000000000857130000000000000000  05000000000075197000000000000000000000000000000000000000000000                                                                                                  *
30118715383000140               114338547102911202020RENATO CESAR PIMENTA DA SILVA                                         00001262570                    2211197202251000000000312450000000000000000  05000000000036077000000000000000000000000000000000000000000000                                                                                                  *
30118715383000140               114338547102004202120RENATO CESAR PIMENTA DA SILVA                                         00001293077                    2211197202251000000000363923000000000000000  05000000000039120000000000000000000000000000000000000000000000                                                                                                  *
30118715383000140               114967938832309202120LIVIA MARIA LINHARES GOMES                                            00001322930                    2302199502251000000001100913000000000000000  05000000000075197000000000000000000000000000000000000000000000                                                                                                  *
30118715383000140               114975537032709202120BEATRIZ ABREU SILVA DE OLIVEIRA                                       00001323723                    0511198802251000000000356270000000000000000  05000000000035005000000000000000000000000000000000000000000000                                                                                                  *
30118715383000140               114988599202703202020CARLOS EDUARDO VITERBO PRADO                                          00001222226                    1706198502251000000000448457000000000000000  05000000000047911000000000000000000000000000000000000000000000                                                                                                  *
30118715383000140               115744428852209202120CARLOS HENRIQUE MORAIS VIEIRA                                         00001322840                    2309199103522000000000206226000000000000000  05000000000016910000000000000000000000000000000000000000000000                                                                                                  *
30118715383000140               115803761472310202020NATALIA VASCONCELOS SILVA                                             00001256430                    1004198902251000000000448340000000000000000  05000000000047895000000000000000000000000000000000000000000000                                                                                                  *
30118715383000140               116094264572503202120GEORGE SALLES FONSECA                                                 00001285635                    2412198002251000000000901602000000000000000  05000000000075197000000000000000000000000000000000000000000000                                                                                                  *
30118715383000140               116574292660305202020ERIC GUSTAVO REGGIANI                                                 00001230962                    0301198502251000000000471416000000000000000  05000000000051126000000000000000000000000000000000000000000000                                                                                                  *
30118715383000140               116604698850906202120MARIA EUDES MENEZES                                                   00001301053                    1609197402235000000000198748000000000000000  05000000000016237000000000000000000000000000000000000000000000                                                                                                  *
30118715383000140               116741189400705202120VANIA INES LAURIANO NERY                                              00001296297                    2607196603522000000000170333000000000000000  05000000000013679000000000000000000000000000000000000000000000                                                                                                  *
30118715383000140               116782353711409202020LUCIANA MARIA RIBEIRO DE CARVALHO                                     00001251730                    0611197903522000000000198748000000000000000  05000000000016237000000000000000000000000000000000000000000000                                                                                                  *
30118715383000140               116858152483110201920FERNANDA CRISTINA GOMES DA SILVA                                      00001198090                    1509197503522000000000179942000000000000000  05000000000014544000000000000000000000000000001000000000000000                                                                                                  *
32118715383000140               116858152483110201920FERNANDA CRISTINA GOMES DA SILVA                                      I330102021N                                                                                                                                                                                                                                 *
30118715383000140               116862108111708202120JULIANA DE BRITO E MELLO LAGE                                         00001315844                    0305198002251000000000394535000000000000000  05000000000040362000000000000000000000000000000000000000000000                                                                                                  *
30118715383000140               116958046721110202120JOANA MARIA DRUMOND CAJAZEIRO                                         00001325904                    1903198602251000000000285710000000000000000  05000000000026024000000000000000000000000000000000000000000000                                                                                                  *
30118715383000140               119423752682601202120CELINA NEVES RIBEIRO                                                  00001272649                    0705198503522000000000219234000000000000000  05000000000018081000000000000000000000000000000000000000000000                                                                                                  *
30118715383000140               119433230240302202120CLAUDIANA APARECIDA LOPES DOS SANTOS                                  00001275818                    0311198603522000000000235979000000000000000  05000000000020056000000000000000000000000000000000000000000000                                                                                                  *
30118715383000140               119464753302202202120LEONARDO GOMES SALOMAO                                                00001278469                    0110199202251000000000924733000000000000000  05000000000075197000000000000000000000000000000000000000000000                                                                                                  *
30118715383000140               119560941260804202120RAFAEL MELO STARLING TAVARES                                          00001288111                    1211197602251000000000386999000000000000000  05000000000039307000000000000000000000000000000000000000000000                                                                                                  *
30118715383000140               119603264600109202120LIDIMAR SILVIANA GOMES DE AQUINO                                      00001319335                    0410198003522000000000192623000000000000000  05000000000015686000000000000000000000000000000000000000000000                                                                                                  *
30118715383000140               119627491710605202020FERNANDA ASSIS VEIGA                                                  00001231101                    1106198002251000000000554553000000000000000    000000000000000000000000000000000000000000000000000000000000                                                                                                  *
30118715383000140               119634554062506202120MICHEL DANTAS ROCHA                                                   00001303420                    1506198102251000000000841603000000000000000  05000000000075197000000000000000000000000000000000000000000000                                                                                                  *
30118715383000140               119715154801604202120SAVIO PERICLES LOUZADA MURTA                                          00001291589                    1812198102235000000000481854000000000000000  05000000000052587000000000000000000000000000000000000000000000                                                                                                  *
30118715383000140               119735097202302202120ANDRE DINIZ CORREA                                                    00001278540                    2807198302251000000000465440000000000000000    000000000000000000000000000000000000000000000000000000000000                                                                                                  *
30118715383000140               119769310582209202120SIDERLANDE PEREIRA ROSA                                               00001322921                    0311197903522000000000235979000000000000000  05000000000020056000000000000000000000000000000000000000000000                                                                                                  *
30118715383000140               119776765400206202120SUERDA BRAZ DE ALMEIDA SALES                                          00001299970                    2204197803522000000000240076000000000000000  05000000000020548000000000000000000000000000000000000000000000                                                                                                  *
30118715383000140               119807377591901202120PATRICIA GIMPEL MOREIRA                                               00001269206                    0711197002235000000000407740000000000000000  05000000000042211000000000407740000000000000000000000000000000                                                                                                  *
32118715383000140               119807377591901202120PATRICIA GIMPEL MOREIRA                                               P309102021                                                                                                                                                                                                                                  *
32118715383000140               119807377591901202120PATRICIA GIMPEL MOREIRA                                               Z516102021                                                                                                                                                                                                                                  *
30118715383000140               119831776812711202020MARINA RODRIGUES DA CUNHA PINHEIRO                                    00001260950                    1904198002251000000000356270000000000000000  05000000000035005000000000000000000000000000000000000000000000                                                                                                  *
30118715383000140               119863332421308202020MARIA LUIZA DE OLIVEIRA                                               00001247121                    2210198403522000000000192623000000000000000  05000000000024197000000000000000000000000000000000000000000000                                                                                                  *
30118715383000140               119863332422901202120MARIA LUIZA DE OLIVEIRA                                               00001273289                    2210198403522000000000198486000000000000000  05000000000015686000000000000000000000000000000000000000000000                                                                                                  *
30118715383000140               119883105680208202020MARLI QUARESMA SILVA                                                  00001244858                    0101199003522000000000192623000000000000000  05000000000015686000000000000000000000000000000000000000000000                                                                                                  *
30118715383000140               119883105681307202120MARLI QUARESMA SILVA                                                  00001310974                    0101199003522000000000192623000000000000000  05000000000023376000000000000000000000000000000000000000000000                                                                                                  *
30118715383000140               119907948602303202120MATHEUS SILVA EPIFANIO SOARES                                         00001284329                    0809199402251000000001244315000000000000000  05000000000075197000000001244315000000000000000000000000000000                                                                                                  *
32118715383000140               119907948602303202120MATHEUS SILVA EPIFANIO SOARES                                         P310102021                                                                                                                                                                                                                                  *
32118715383000140               119907948602303202120MATHEUS SILVA EPIFANIO SOARES                                         Z516102021                                                                                                                                                                                                                                  *
30118715383000140               119956458392812201920MARCO TULIO RUSSO MOREIRA MOURA                                       00001209246                    2008199102251000000000857287000000000000000  05000000000039291000000000000000000000000000000000000000000000                                                                                                  *
30118715383000140               119956458392004202120MARCO TULIO RUSSO MOREIRA MOURA                                       00001291821                    2008199102251000000000386882000000000000000  05000000000035906000000000000000000000000000000000000000000000                                                                                                  *
30118715383000140               119956897632709202120TANIA MARIA BRITO BRANDAO CAMPAGNUCI                                  00001323669                    0209196403522000000000172894000000000000000  05000000000013910000000000000000000000000000000000000000000000                                                                                                  *
30118715383000140               119984269251801202120LAURENTINA APOLONIA PEREIRA                                           00001268382                    1008196702235000000000438469000000000000000  05000000000046513000000000000000000000000000000000000000000000                                                                                                  *
30118715383000140               120011111442511201920NILDA DA SILVA MIRANDA NOGUEIRA                                       00001203434                    0904196002251000000000428565000000000000000  05000000000045127000000000000000000000000000000000000000000000                                                                                                  *
30118715383000140               120012693250411201920REGILA MARIA MOREIRA QUINETTI PAES                                    00001198600                    2308196003522000000000172894000000000000000  05000000000013910000000000000000000000000000000000000000000000                                                                                                  *
30118715383000140               120035359792409202120VICENTE DE PAULO ALMEIDA                                              00001323553                    1104196403522000000000198748000000000000000  05000000000016237000000000000000000000000000000000000000000000                                                                                                  *
30118715383000140               120036820091206202020ILDA DAS GRACAS NASCIMENTO                                            00001237657                    2111196003522000000000153960000000000000000  05000000000012206000000000000000000000000000000000000000000000                                                                                                  *
30118715383000140               120117524600206202120NADIA REJANE DOS SANTOS                                               00001300200                    0901196102251000000001100913000000000000000  05000000000075197000000000000000000000000000000000000000000000                                                                                                  *
30118715383000140               120117537690104202120ANGELA MARIA LUIZ                                                     00001287158                    1209195903522000000000172894000000000000000  05000000000013910000000000000000000000000000000000000000000000                                                                                                  *
30118715383000140               120120314140405202020JAIRO TOMAZ RODRIGUES                                                 00001231381                    1104196203522000000000136013000000000000000  05000000000010591000000000136013000000000000000000000000000000                                                                                                  *
32118715383000140               120120314140405202020JAIRO TOMAZ RODRIGUES                                                 P304102021                                                                                                                                                                                                                                  *
32118715383000140               120120314140405202020JAIRO TOMAZ RODRIGUES                                                 Z508102021                                                                                                                                                                                                                                  *
30118715383000140               120122203061609202120MARGARET MARIA FERREIRA                                               00001321674                    2511196303522000000000195176000000000000000  05000000000015915000000000195176000000000000000000000000000000                                                                                                  *
32118715383000140               120122203061609202120MARGARET MARIA FERREIRA                                               P326092021                                                                                                                                                                                                                                  *
32118715383000140               120122203061609202120MARGARET MARIA FERREIRA                                               Z501102021                                                                                                                                                                                                                                  *
30118715383000140               120146792412204202120ADRIANA CRISTINA GOMES                                                00001292976                    1707196402235000000000198748000000000000000  05000000000016237000000000000000000000000000000000000000000000                                                                                                  *
30118715383000140               120147256691504202120MARIA JANUARIA DE SOUZA MARQUES                                       00001291260                    1909196003522000000000180064000000000000000  05000000000014555000000000000000000000000000000000000000000000                                                                                                  *
30118715383000140               120147400720111201920MARIA APARECIDA CASSIMIRO RIBEIRO                                     00001198546                    2412196403522000000000180064000000000000000  05000000000014555000000000000000000000000000000000000000000000                                                                                                  *
30118715383000140               120197278561305202120SILVANA FERREIRA GONCALVES PINTO                                      00001296971                    2103196303522000000000192623000000000000000  05000000000015686000000000000000000000000000000000000000000000                                                                                                  *
30118715383000140               120198572290711201920ILDEU EVARISTO COELHO                                                 00001201318                    1108197003522000000000211552000000000000000  05000000000017389000000000000000000000000000000000000000000000                                                                                                  *
30118715383000140               120198572290512201920ILDEU EVARISTO COELHO                                                 00001207200                    1108197003522000000000211552000000000000000  05000000000026973000000000000000000000000000000000000000000000                                                                                                  *
30118715383000140               120248374002003202120NELSON ARAUJO DA SILVA                                                00001283500                    0411196302235000000000306706000000000000000  05000000000028543000000000000000000000000000000000000000000000                                                                                                  *
30118715383000140               120252982281511201920CLAUDIO FERNANDO DA CONCEICAO                                         00001202578                    1902196603522000000000192623000000000000000  05000000000015686000000000000000000000000000000000000000000000                                                                                                  *
30118715383000140               120252982281605202020CLAUDIO FERNANDO DA CONCEICAO                                         00001233546                    1902196603522000000000192623000000000000000  05000000000023376000000000000000000000000000000000000000000000                                                                                                  *
30118715383000140               120253832333110202020MATILDE DOS REIS MORAIS                                               00001257933                    1207196303522000000000213024000000000000000  05000000000017522000000000000000000000000000000000000000000000                                                                                                  *
30118715383000140               120367740852604202120ISABEL OLIVEIRA DA COSTA                                              00001293395                    2507196203522000000000227119000000000000000  05000000000018993000000000000000000000000000000000000000000000                                                                                                  *
30118715383000140               120367771731102202120LEOPOLDINA MACHADO                                                    00001276890                    0304196203522000000000189550000000000000000  05000000000015409000000000000000000000000000000000000000000000                                                                                                  *
30118715383000140               120370010200608202120ELAINE SANDRE DA CUNHA                                                00001314384                    2207195802235000000000198748000000000000000  05000000000016237000000000000000000000000000000000000000000000                                                                                                  *
30118715383000140               120371157192402202020ELIANA SALUSTIANA BRUMANA                                             00001216471                    2802196303522000000000189550000000000000000  05000000000015409000000000000000000000000000000000000000000000                                                                                                  *
30118715383000140               120371462903110201920MARIA LUCIA ANDRADE SANTOS                                            00001198104                    2312196203522000000000230534000000000000000  05000000000019403000000000000000000000000000001000000000000000                                                                                                  *
32118715383000140               120371462903110201920MARIA LUCIA ANDRADE SANTOS                                            I330102021N                                                                                                                                                                                                                                 *
30118715383000140               120372009882809202020VILMEIA DA SILVA                                                      00001253164                    1708196403522000000000172894000000000000000  05000000000013910000000000000000000000000000000000000000000000                                                                                                  *
30118715383000140               120372070871404202020BELMIRA TANIA ALMEIDA                                                 00001227503                    0311196003522000000000172894000000000000000  05000000000013910000000000000000000000000000000000000000000000                                                                                                  *
30118715383000140               120372737132001202020APARECIDA BEATRIZ DA SILVA                                            00001212484                    0707196303522000000000245402000000000000000  05000000000021187000000000000000000000000000000000000000000000                                                                                                  *
30118715383000140               120406820841502202120GILSON CARLOS GERONIMO                                                00001277390                    2801196503522000000000153960000000000000000  05000000000012206000000000000000000000000000000000000000000000                                                                                                  *
30118715383000140               120408676101011202020ILZANETE ASSIS DE MELO                                                00001259278                    2405196303522000000000240076000000000000000  05000000000020548000000000000000000000000000000000000000000000                                                                                                  *
30118715383000140               120443213372110202020GUILLERMO ANTONIO MACIAS RONDON                                       00001256589                    1901195502251000000001141885000000000000000  05000000000075197000000000000000000000000000000000000000000000                                                                                                  *
30118715383000140               120443404980801202020CASSIA MARIA DUVAL                                                    00001209971                    2009196103522000000000194198000000000000000  05000000000015827000000000000000000000000000000000000000000000                                                                                                  *
30118715383000140               120500016910908202120LINDETE DOS SANTOS MELO                                               00001314651                    0509196703522000000000320465000000000000000  05000000000026746000000000000000000000000000000000000000000000                                                                                                  *
30118715383000140               120501284462312201920ELIANA MOREIRA DE CARVALHO SILVA                                      00001208754                    1003196603522000000000240076000000000000000  05000000000020548000000000000000000000000000000000000000000000                                                                                                  *
30118715383000140               120620592230104202020CARLOS ALEXANDRE PINTO                                                00001224474                    2304196503522000000000377432000000000000000  05000000000032552000000000000000000000000000000000000000000000                                                                                                  *
30118715383000140               120620629840111201920GISLEIDE LOPES OLIVEIRA CLARK                                         00001198740                    2702196603522000000000230534000000000000000  05000000000019403000000000000000000000000000000000000000000000                                                                                                  *
30118715383000140               120621749950509202020WASHINGTON VALERIO HORTA                                              00001250068                    1006196503522000000000202377000000000000000  05000000000016563000000000000000000000000000000000000000000000                                                                                                  *
30118715383000140               120650367392403202020MARIA DAS GRACAS FERREIRA                                             00001221882                    0104194803522000000000175355000000000000000  05000000000014131000000000000000000000000000000000000000000000                                                                                                  *
30118715383000140               120650418132804202120JOSE ALMERINDO DA ROCHA                                               00001294090                    1401196703522000000000198748000000000000000  05000000000016237000000000000000000000000000000000000000000000                                                                                                  *
30118715383000140               120667780972809202120ROSEMEIRE DAS GRACAS DE OLIVEIRA                                      00001323790                    0509196503522000000000176991000000000000000  05000000000014279000000000000000000000000000000000000000000000                                                                                                  *
30118715383000140               120668382190707202020SARA VANIA TORRES                                                     00001240780                    2007196203522000000000138574000000000000000  05000000000010821000000000138574000000000000000000000000000000                                                                                                  *
32118715383000140               120668382190707202020SARA VANIA TORRES                                                     P310102021                                                                                                                                                                                                                                  *
32118715383000140               120668382190707202020SARA VANIA TORRES                                                     Z524102021                                                                                                                                                                                                                                  *
30118715383000140               120669948222210202020MARLI VITAL                                                           00001256643                    1508196703522000000000230534000000000000000  05000000000019403000000000000000000000000000000000000000000000                                                                                                  *
30118715383000140               120670205700608202120DIRLENE GUIMARAES DANTE FERREIRA                                      00001314546                    2205196303522000000000172894000000000000000  05000000000013910000000000000000000000000000000000000000000000                                                                                                  *
30118715383000140               120770084841710201920FABIO DE MORAIS                                                       00001194478                    0702196703522000000000116925000000000000000  05000000000008873000000000000000000000000000001000000000000000                                                                                                  *
32118715383000140               120770084841710201920FABIO DE MORAIS                                                       I316102021N                                                                                                                                                                                                                                 *
30118715383000140               120770184392502202120DAISE DA GLORIA DE FREITAS SILVA                                      00001278809                    1309196303522000000000158313000000000000000  05000000000012598000000000000000000000000000000000000000000000                                                                                                  *
30118715383000140               120772443070209202120MARCIA DE FATIMA BARBOSA DA SILVA                                     00001319599                    0205196103522000000000264014000000000000000  05000000000020805000000000000000000000000000000000000000000000                                                                                                  *
30118715383000140               120795025322406201920LUCIA MARA SA DE SOUZA                                                00000587377                    1312195703522000000000423105000000000000000  05000000000044362000000000000000000000000000000000000000000000                                                                                                  *
30118715383000140               120795709370811201920VANECE MARIA SANTOS                                                   00001201687                    2406196103522000000000172894000000000000000  05000000000013910000000000000000000000000000000000000000000000                                                                                                  *
30118715383000140               120797097730305202120LIDIA BARBOSA DE JESUS                                                00001294693                    0103196503522000000000219690000000000000000  05000000000018122000000000219690000000000000000000000000000000                                                                                                  *
32118715383000140               120797097730305202120LIDIA BARBOSA DE JESUS                                                P312102021                                                                                                                                                                                                                                  *
32118715383000140               120797097730305202120LIDIA BARBOSA DE JESUS                                                Z521102021                                                                                                                                                                                                                                  *
30118715383000140               120831576582506202120MARCILENE DE FATIMA BARBOSA SILVA                                     00001308031                    1005196304222000000000324315000000000000000  05000000000030657000000000000000000000000000000000000000000000                                                                                                  *
32118715383000140               120831576582506202120MARCILENE DE FATIMA BARBOSA SILVA                                     I130092021N                                                                                                                                                                                                                                 *
30118715383000140               120832265280704202020MARCELO PEREIRA DE MOURA                                              00001225799                    2701196303522000000000142671000000000000000  05000000000011190000000000000000000000000000000000000000000000                                                                                                  *
30118715383000140               120832733722905202020EDSON DOMINGOS DE SOUZA                                               00001235646                    0403196503522000000000160158000000000000000  05000000000018791000000000000000000000000000000000000000000000                                                                                                  *
30118715383000140               120832733720207202120EDSON DOMINGOS DE SOUZA                                               00001304362                    0403196503522000000000191828000000000000000  05000000000015614000000000000000000000000000000000000000000000                                                                                                  *
30118715383000140               120832819280103202120WANDERLEIA FRANCISCO MAGALHAES                                        00001279414                    1805196503522000000000164646000000000000000  05000000000013168000000000000000000000000000000000000000000000                                                                                                  *
30118715383000140               120833268750607202120CLEIA ISABEL PINTO DE ARAUJO                                          00001306551                    1709196003522000000000236542000000000000000  05000000000020124000000000000000000000000000000000000000000000                                                                                                  *
30118715383000140               120834414292101202120INES DE JESUS LEITE FERNANDES                                         00001270727                    2101196502235000000000423105000000000000000  05000000000044362000000000000000000000000000000000000000000000                                                                                                  *
30118715383000140               120835839080803202120GLAUCIA MAGDA BARBOSA                                                 00001280340                    0411196102235000000000479442000000000000000  05000000000052249000000000000000000000000000000000000000000000                                                                                                  *
30118715383000140               120931520550802202120VANIA GUILHERME                                                       00001276547                    2807196203522000000000137962000000000000000  05000000000010766000000000000000000000000000000000000000000000                                                                                                  *
30118715383000140               120932114690705202120MARIA CLAUDIA FERREIRA                                                00001296203                    2209196403522000000000230534000000000000000  05000000000019403000000000000000000000000000000000000000000000                                                                                                  *
30118715383000140               120932866473011202020SANDRA ENI DA COSTA                                                   00001262589                    0503196503522000000000199643000000000000000  05000000000016317000000000000000000000000000000000000000000000                                                                                                  *
30118715383000140               120992081412001202020MONICA AZEVEDO VILELA                                                 00001212492                    2111196803522000000000479442000000000000000  05000000000052249000000000000000000000000000000000000000000000                                                                                                  *
30118715383000140               121032643810912202020AURENICE GONCALVES DIAS LEITE                                         00001263704                    2204196103522000000000156264000000000000000  05000000000012413000000000000000000000000000000000000000000000                                                                                                  *
30118715383000140               121038164650510202120LUCIMAR APARECIDA GONCALVES                                           00001325092                    1508196402235000000000428832000000000000000  05000000000045164000000000000000000000000000000000000000000000                                                                                                  *
30118715383000140               121040848591603202020REGINA HELENA DE LANA REIS                                            00001218555                    1212196403522000000000407740000000000000000  05000000000042211000000000000000000000000000000000000000000000                                                                                                  *
